{
	"data": {
		"bytecode": {
			"linkReferences": {},
			"object": "60806040526001600360006101000a81548160ff021916908360ff1602179055506001600360016101000a81548160ff021916908360ff1602179055506706f05b59d3b2000060045534801561005457600080fd5b50611b2c806100646000396000f3fe608060405234801561001057600080fd5b506004361061009e5760003560e01c8063afe35b8a11610066578063afe35b8a14610175578063b13c744b14610193578063b3f98adc146101c7578063ba25088b146101e3578063ff2b1670146101ff5761009e565b806350e2e8af146100a3578063569fd2e9146100d3578063766af8c9146100f15780639b910ea914610121578063a9d21c7e14610157575b600080fd5b6100bd60048036038101906100b8919061133b565b61021d565b6040516100ca9190611515565b60405180910390f35b6100db610267565b6040516100e891906116bb565b60405180910390f35b61010b6004803603810190610106919061130e565b61027e565b60405161011891906116bb565b60405180910390f35b61013b6004803603810190610136919061133b565b61029e565b60405161014e9796959493929190611530565b60405180910390f35b61015f6103b2565b60405161016c9190611600565b60405180910390f35b61017d610468565b60405161018a9190611600565b60405180910390f35b6101ad60048036038101906101a8919061133b565b610550565b6040516101be9594939291906115a6565b60405180910390f35b6101e160048036038101906101dc9190611368565b610665565b005b6101fd60048036038101906101f89190611395565b610e3f565b005b6102076110a9565b6040516102149190611600565b60405180910390f35b6001818154811061022d57600080fd5b906000526020600020016000915090508060000160009054906101000a900473ffffffffffffffffffffffffffffffffffffffff16905081565b6000600360009054906101000a900460ff16905090565b60056020528060005260406000206000915054906101000a900460ff1681565b600281815481106102ae57600080fd5b90600052602060002090600502016000915090508060000160009054906101000a900473ffffffffffffffffffffffffffffffffffffffff16908060000160149054906101000a900460ff16908060000160159054906101000a900460ff169080600101549080600201549080600301549080600401805461032f90611847565b80601f016020809104026020016040519081016040528092919081815260200182805461035b90611847565b80156103a85780601f1061037d576101008083540402835291602001916103a8565b820191906000526020600020905b81548152906001019060200180831161038b57829003601f168201915b5050505050905087565b600080600090505b6001805490508160ff16101561045f573373ffffffffffffffffffffffffffffffffffffffff1660018260ff16815481106103f8576103f7611961565b5b9060005260206000200160000160009054906101000a900473ffffffffffffffffffffffffffffffffffffffff1673ffffffffffffffffffffffffffffffffffffffff16141561044c576000915050610465565b8080610457906118aa565b9150506103ba565b50600190505b90565b600080600560003373ffffffffffffffffffffffffffffffffffffffff1673ffffffffffffffffffffffffffffffffffffffff16815260200190815260200160002060009054906101000a900460ff1660ff1614156104ca576001905061054d565b600560003373ffffffffffffffffffffffffffffffffffffffff1673ffffffffffffffffffffffffffffffffffffffff16815260200190815260200160002060009054906101000a900460ff1660ff166001600360009054906101000a900460ff16610536919061177c565b60ff161115610548576001905061054d565b600090505b90565b6000818154811061056057600080fd5b90600052602060002090600202016000915090508060000160009054906101000a900473ffffffffffffffffffffffffffffffffffffffff16908060000160149054906101000a900460ff16908060000160159054906101000a900460ff16908060000160169054906101000a900460ff16908060010180546105e290611847565b80601f016020809104026020016040519081016040528092919081815260200182805461060e90611847565b801561065b5780601f106106305761010080835404028352916020019161065b565b820191906000526020600020905b81548152906001019060200180831161063e57829003601f168201915b5050505050905085565b6005600080549050146106ad576040517f08c379a00000000000000000000000000000000000000000000000000000000081526004016106a49061165b565b60405180910390fd5b6106b56103b2565b6106f4576040517f08c379a00000000000000000000000000000000000000000000000000000000081526004016106eb9061161b565b60405180910390fd5b6000600182610703919061177c565b60ff168154811061071757610716611961565b5b9060005260206000209060020201600001601681819054906101000a900460ff1680929190610745906118aa565b91906101000a81548160ff021916908360ff16021790555050600160405180602001604052803373ffffffffffffffffffffffffffffffffffffffff168152509080600181540180825580915050600190039060005260206000200160009091909190915060008201518160000160006101000a81548173ffffffffffffffffffffffffffffffffffffffff021916908373ffffffffffffffffffffffffffffffffffffffff160217905550505060056000600183610804919061177c565b60ff168154811061081857610817611961565b5b906000526020600020906002020160000160169054906101000a900460ff1660ff161415610e3c5760026040518060e00160405280600060018561085c919061177c565b60ff16815481106108705761086f611961565b5b906000526020600020906002020160000160009054906101000a900473ffffffffffffffffffffffffffffffffffffffff1673ffffffffffffffffffffffffffffffffffffffff168152602001600360009054906101000a900460ff1660ff16815260200160006001856108e4919061177c565b60ff16815481106108f8576108f7611961565b5b906000526020600020906002020160000160159054906101000a900460ff1660ff16815260200142815260200160008152602001600081526020016000600185610942919061177c565b60ff168154811061095657610955611961565b5b9060005260206000209060020201600101805461097290611847565b80601f016020809104026020016040519081016040528092919081815260200182805461099e90611847565b80156109eb5780601f106109c0576101008083540402835291602001916109eb565b820191906000526020600020905b8154815290600101906020018083116109ce57829003601f168201915b5050505050815250908060018154018082558091505060019003906000526020600020906005020160009091909190915060008201518160000160006101000a81548173ffffffffffffffffffffffffffffffffffffffff021916908373ffffffffffffffffffffffffffffffffffffffff16021790555060208201518160000160146101000a81548160ff021916908360ff16021790555060408201518160000160156101000a81548160ff021916908360ff160217905550606082015181600101556080820151816002015560a0820151816003015560c0820151816004019080519060200190610adf92919061117c565b50505060016002805490501115610c1a5742600280600360009054906101000a900460ff16610b0e919061177c565b60ff1681548110610b2257610b21611961565b5b9060005260206000209060050201600201819055506000600280600360009054906101000a900460ff16610b56919061177c565b60ff1681548110610b6a57610b69611961565b5b90600052602060002090600502016002015490506000600280600360009054906101000a900460ff16610b9d919061177c565b60ff1681548110610bb157610bb0611961565b5b90600052602060002090600502016001015490508082610bd19190611748565b600280600360009054906101000a900460ff16610bee919061177c565b60ff1681548110610c0257610c01611961565b5b90600052602060002090600502016003018190555050505b600360009054906101000a900460ff166005600080600185610c3c919061177c565b60ff1681548110610c5057610c4f611961565b5b906000526020600020906002020160000160009054906101000a900473ffffffffffffffffffffffffffffffffffffffff1673ffffffffffffffffffffffffffffffffffffffff1673ffffffffffffffffffffffffffffffffffffffff16815260200190815260200160002060006101000a81548160ff021916908360ff1602179055505b600080805490501115610d85576000805480610cf457610cf3611932565b5b6001900381819060005260206000209060020201600080820160006101000a81549073ffffffffffffffffffffffffffffffffffffffff02191690556000820160146101000a81549060ff02191690556000820160156101000a81549060ff02191690556000820160166101000a81549060ff0219169055600182016000610d7c9190611202565b50509055610cd5565b5b60006001805490501115610de7576001805480610da657610da5611932565b5b60019003818190600052602060002001600080820160006101000a81549073ffffffffffffffffffffffffffffffffffffffff021916905550509055610d86565b6003600081819054906101000a900460ff1680929190610e06906118aa565b91906101000a81548160ff021916908360ff160217905550506001600360016101000a81548160ff021916908360ff1602179055505b50565b6005600360019054906101000a900460ff1660ff161115610e95576040517f08c379a0000000000000000000000000000000000000000000000000000000008152600401610e8c9061167b565b60405180910390fd5b610e9d6110a9565b610edc576040517f08c379a0000000000000000000000000000000000000000000000000000000008152600401610ed39061163b565b60405180910390fd5b610ee4610468565b610f23576040517f08c379a0000000000000000000000000000000000000000000000000000000008152600401610f1a9061169b565b60405180910390fd5b60006040518060a001604052803373ffffffffffffffffffffffffffffffffffffffff168152602001600360019054906101000a900460ff1660ff1681526020018460ff168152602001600060ff16815260200183815250908060018154018082558091505060019003906000526020600020906002020160009091909190915060008201518160000160006101000a81548173ffffffffffffffffffffffffffffffffffffffff021916908373ffffffffffffffffffffffffffffffffffffffff16021790555060208201518160000160146101000a81548160ff021916908360ff16021790555060408201518160000160156101000a81548160ff021916908360ff16021790555060608201518160000160166101000a81548160ff021916908360ff160217905550608082015181600101908051906020019061106a92919061117c565b5050506003600181819054906101000a900460ff168092919061108c906118aa565b91906101000a81548160ff021916908360ff160217905550505050565b600080600090505b6001600360019054906101000a900460ff166110cd919061177c565b60ff168160ff161015611173573373ffffffffffffffffffffffffffffffffffffffff1660008260ff168154811061110857611107611961565b5b906000526020600020906002020160000160009054906101000a900473ffffffffffffffffffffffffffffffffffffffff1673ffffffffffffffffffffffffffffffffffffffff161415611160576000915050611179565b808061116b906118aa565b9150506110b1565b50600190505b90565b82805461118890611847565b90600052602060002090601f0160209004810192826111aa57600085556111f1565b82601f106111c357805160ff19168380011785556111f1565b828001600101855582156111f1579182015b828111156111f05782518255916020019190600101906111d5565b5b5090506111fe9190611242565b5090565b50805461120e90611847565b6000825580601f10611220575061123f565b601f01602090049060005260206000209081019061123e9190611242565b5b50565b5b8082111561125b576000816000905550600101611243565b5090565b600061127261126d846116fb565b6116d6565b90508281526020810184848401111561128e5761128d6119c4565b5b611299848285611805565b509392505050565b6000813590506112b081611ab1565b92915050565b600082601f8301126112cb576112ca6119bf565b5b81356112db84826020860161125f565b91505092915050565b6000813590506112f381611ac8565b92915050565b60008135905061130881611adf565b92915050565b600060208284031215611324576113236119ce565b5b6000611332848285016112a1565b91505092915050565b600060208284031215611351576113506119ce565b5b600061135f848285016112e4565b91505092915050565b60006020828403121561137e5761137d6119ce565b5b600061138c848285016112f9565b91505092915050565b600080604083850312156113ac576113ab6119ce565b5b60006113ba858286016112f9565b925050602083013567ffffffffffffffff8111156113db576113da6119c9565b5b6113e7858286016112b6565b9150509250929050565b6113fa816117b0565b82525050565b611409816117c2565b82525050565b600061141a8261172c565b6114248185611737565b9350611434818560208601611814565b61143d816119d3565b840191505092915050565b6000611455601683611737565b9150611460826119e4565b602082019050919050565b6000611478601b83611737565b915061148382611a0d565b602082019050919050565b600061149b601a83611737565b91506114a682611a36565b602082019050919050565b60006114be602083611737565b91506114c982611a5f565b602082019050919050565b60006114e1601e83611737565b91506114ec82611a88565b602082019050919050565b611500816117ee565b82525050565b61150f816117f8565b82525050565b600060208201905061152a60008301846113f1565b92915050565b600060e082019050611545600083018a6113f1565b6115526020830189611506565b61155f6040830188611506565b61156c60608301876114f7565b61157960808301866114f7565b61158660a08301856114f7565b81810360c0830152611598818461140f565b905098975050505050505050565b600060a0820190506115bb60008301886113f1565b6115c86020830187611506565b6115d56040830186611506565b6115e26060830185611506565b81810360808301526115f4818461140f565b90509695505050505050565b60006020820190506116156000830184611400565b92915050565b6000602082019050818103600083015261163481611448565b9050919050565b600060208201905081810360008301526116548161146b565b9050919050565b600060208201905081810360008301526116748161148e565b9050919050565b60006020820190508181036000830152611694816114b1565b9050919050565b600060208201905081810360008301526116b4816114d4565b9050919050565b60006020820190506116d06000830184611506565b92915050565b60006116e06116f1565b90506116ec8282611879565b919050565b6000604051905090565b600067ffffffffffffffff82111561171657611715611990565b5b61171f826119d3565b9050602081019050919050565b600081519050919050565b600082825260208201905092915050565b6000611753826117ee565b915061175e836117ee565b925082821015611771576117706118d4565b5b828203905092915050565b6000611787826117f8565b9150611792836117f8565b9250828210156117a5576117a46118d4565b5b828203905092915050565b60006117bb826117ce565b9050919050565b60008115159050919050565b600073ffffffffffffffffffffffffffffffffffffffff82169050919050565b6000819050919050565b600060ff82169050919050565b82818337600083830152505050565b60005b83811015611832578082015181840152602081019050611817565b83811115611841576000848401525b50505050565b6000600282049050600182168061185f57607f821691505b6020821081141561187357611872611903565b5b50919050565b611882826119d3565b810181811067ffffffffffffffff821117156118a1576118a0611990565b5b80604052505050565b60006118b5826117f8565b915060ff8214156118c9576118c86118d4565b5b600182019050919050565b7f4e487b7100000000000000000000000000000000000000000000000000000000600052601160045260246000fd5b7f4e487b7100000000000000000000000000000000000000000000000000000000600052602260045260246000fd5b7f4e487b7100000000000000000000000000000000000000000000000000000000600052603160045260246000fd5b7f4e487b7100000000000000000000000000000000000000000000000000000000600052603260045260246000fd5b7f4e487b7100000000000000000000000000000000000000000000000000000000600052604160045260246000fd5b600080fd5b600080fd5b600080fd5b600080fd5b6000601f19601f8301169050919050565b7f796f75206861766520616c726561647920766f74656400000000000000000000600082015250565b7f796f75206861766520616c726561647920726567697374657265640000000000600082015250565b7f5468657265206d75737420626520352063616e64696461746573000000000000600082015250565b7f43616e64696461746520726567697374726174696f6e20697320636c6f736564600082015250565b7f63616e6e6f7420736572766520636f6e7365637574697665207465726d730000600082015250565b611aba816117b0565b8114611ac557600080fd5b50565b611ad1816117ee565b8114611adc57600080fd5b50565b611ae8816117f8565b8114611af357600080fd5b5056fea26469706673582212201731ce915fe510086086aa6f0963d9586ec408840ac9be838f52f31f1d69d14d64736f6c63430008060033",
			"opcodes": "PUSH1 0x80 PUSH1 0x40 MSTORE PUSH1 0x1 PUSH1 0x3 PUSH1 0x0 PUSH2 0x100 EXP DUP2 SLOAD DUP2 PUSH1 0xFF MUL NOT AND SWAP1 DUP4 PUSH1 0xFF AND MUL OR SWAP1 SSTORE POP PUSH1 0x1 PUSH1 0x3 PUSH1 0x1 PUSH2 0x100 EXP DUP2 SLOAD DUP2 PUSH1 0xFF MUL NOT AND SWAP1 DUP4 PUSH1 0xFF AND MUL OR SWAP1 SSTORE POP PUSH8 0x6F05B59D3B20000 PUSH1 0x4 SSTORE CALLVALUE DUP1 ISZERO PUSH2 0x54 JUMPI PUSH1 0x0 DUP1 REVERT JUMPDEST POP PUSH2 0x1B2C DUP1 PUSH2 0x64 PUSH1 0x0 CODECOPY PUSH1 0x0 RETURN INVALID PUSH1 0x80 PUSH1 0x40 MSTORE CALLVALUE DUP1 ISZERO PUSH2 0x10 JUMPI PUSH1 0x0 DUP1 REVERT JUMPDEST POP PUSH1 0x4 CALLDATASIZE LT PUSH2 0x9E JUMPI PUSH1 0x0 CALLDATALOAD PUSH1 0xE0 SHR DUP1 PUSH4 0xAFE35B8A GT PUSH2 0x66 JUMPI DUP1 PUSH4 0xAFE35B8A EQ PUSH2 0x175 JUMPI DUP1 PUSH4 0xB13C744B EQ PUSH2 0x193 JUMPI DUP1 PUSH4 0xB3F98ADC EQ PUSH2 0x1C7 JUMPI DUP1 PUSH4 0xBA25088B EQ PUSH2 0x1E3 JUMPI DUP1 PUSH4 0xFF2B1670 EQ PUSH2 0x1FF JUMPI PUSH2 0x9E JUMP JUMPDEST DUP1 PUSH4 0x50E2E8AF EQ PUSH2 0xA3 JUMPI DUP1 PUSH4 0x569FD2E9 EQ PUSH2 0xD3 JUMPI DUP1 PUSH4 0x766AF8C9 EQ PUSH2 0xF1 JUMPI DUP1 PUSH4 0x9B910EA9 EQ PUSH2 0x121 JUMPI DUP1 PUSH4 0xA9D21C7E EQ PUSH2 0x157 JUMPI JUMPDEST PUSH1 0x0 DUP1 REVERT JUMPDEST PUSH2 0xBD PUSH1 0x4 DUP1 CALLDATASIZE SUB DUP2 ADD SWAP1 PUSH2 0xB8 SWAP2 SWAP1 PUSH2 0x133B JUMP JUMPDEST PUSH2 0x21D JUMP JUMPDEST PUSH1 0x40 MLOAD PUSH2 0xCA SWAP2 SWAP1 PUSH2 0x1515 JUMP JUMPDEST PUSH1 0x40 MLOAD DUP1 SWAP2 SUB SWAP1 RETURN JUMPDEST PUSH2 0xDB PUSH2 0x267 JUMP JUMPDEST PUSH1 0x40 MLOAD PUSH2 0xE8 SWAP2 SWAP1 PUSH2 0x16BB JUMP JUMPDEST PUSH1 0x40 MLOAD DUP1 SWAP2 SUB SWAP1 RETURN JUMPDEST PUSH2 0x10B PUSH1 0x4 DUP1 CALLDATASIZE SUB DUP2 ADD SWAP1 PUSH2 0x106 SWAP2 SWAP1 PUSH2 0x130E JUMP JUMPDEST PUSH2 0x27E JUMP JUMPDEST PUSH1 0x40 MLOAD PUSH2 0x118 SWAP2 SWAP1 PUSH2 0x16BB JUMP JUMPDEST PUSH1 0x40 MLOAD DUP1 SWAP2 SUB SWAP1 RETURN JUMPDEST PUSH2 0x13B PUSH1 0x4 DUP1 CALLDATASIZE SUB DUP2 ADD SWAP1 PUSH2 0x136 SWAP2 SWAP1 PUSH2 0x133B JUMP JUMPDEST PUSH2 0x29E JUMP JUMPDEST PUSH1 0x40 MLOAD PUSH2 0x14E SWAP8 SWAP7 SWAP6 SWAP5 SWAP4 SWAP3 SWAP2 SWAP1 PUSH2 0x1530 JUMP JUMPDEST PUSH1 0x40 MLOAD DUP1 SWAP2 SUB SWAP1 RETURN JUMPDEST PUSH2 0x15F PUSH2 0x3B2 JUMP JUMPDEST PUSH1 0x40 MLOAD PUSH2 0x16C SWAP2 SWAP1 PUSH2 0x1600 JUMP JUMPDEST PUSH1 0x40 MLOAD DUP1 SWAP2 SUB SWAP1 RETURN JUMPDEST PUSH2 0x17D PUSH2 0x468 JUMP JUMPDEST PUSH1 0x40 MLOAD PUSH2 0x18A SWAP2 SWAP1 PUSH2 0x1600 JUMP JUMPDEST PUSH1 0x40 MLOAD DUP1 SWAP2 SUB SWAP1 RETURN JUMPDEST PUSH2 0x1AD PUSH1 0x4 DUP1 CALLDATASIZE SUB DUP2 ADD SWAP1 PUSH2 0x1A8 SWAP2 SWAP1 PUSH2 0x133B JUMP JUMPDEST PUSH2 0x550 JUMP JUMPDEST PUSH1 0x40 MLOAD PUSH2 0x1BE SWAP6 SWAP5 SWAP4 SWAP3 SWAP2 SWAP1 PUSH2 0x15A6 JUMP JUMPDEST PUSH1 0x40 MLOAD DUP1 SWAP2 SUB SWAP1 RETURN JUMPDEST PUSH2 0x1E1 PUSH1 0x4 DUP1 CALLDATASIZE SUB DUP2 ADD SWAP1 PUSH2 0x1DC SWAP2 SWAP1 PUSH2 0x1368 JUMP JUMPDEST PUSH2 0x665 JUMP JUMPDEST STOP JUMPDEST PUSH2 0x1FD PUSH1 0x4 DUP1 CALLDATASIZE SUB DUP2 ADD SWAP1 PUSH2 0x1F8 SWAP2 SWAP1 PUSH2 0x1395 JUMP JUMPDEST PUSH2 0xE3F JUMP JUMPDEST STOP JUMPDEST PUSH2 0x207 PUSH2 0x10A9 JUMP JUMPDEST PUSH1 0x40 MLOAD PUSH2 0x214 SWAP2 SWAP1 PUSH2 0x1600 JUMP JUMPDEST PUSH1 0x40 MLOAD DUP1 SWAP2 SUB SWAP1 RETURN JUMPDEST PUSH1 0x1 DUP2 DUP2 SLOAD DUP2 LT PUSH2 0x22D JUMPI PUSH1 0x0 DUP1 REVERT JUMPDEST SWAP1 PUSH1 0x0 MSTORE PUSH1 0x20 PUSH1 0x0 KECCAK256 ADD PUSH1 0x0 SWAP2 POP SWAP1 POP DUP1 PUSH1 0x0 ADD PUSH1 0x0 SWAP1 SLOAD SWAP1 PUSH2 0x100 EXP SWAP1 DIV PUSH20 0xFFFFFFFFFFFFFFFFFFFFFFFFFFFFFFFFFFFFFFFF AND SWAP1 POP DUP2 JUMP JUMPDEST PUSH1 0x0 PUSH1 0x3 PUSH1 0x0 SWAP1 SLOAD SWAP1 PUSH2 0x100 EXP SWAP1 DIV PUSH1 0xFF AND SWAP1 POP SWAP1 JUMP JUMPDEST PUSH1 0x5 PUSH1 0x20 MSTORE DUP1 PUSH1 0x0 MSTORE PUSH1 0x40 PUSH1 0x0 KECCAK256 PUSH1 0x0 SWAP2 POP SLOAD SWAP1 PUSH2 0x100 EXP SWAP1 DIV PUSH1 0xFF AND DUP2 JUMP JUMPDEST PUSH1 0x2 DUP2 DUP2 SLOAD DUP2 LT PUSH2 0x2AE JUMPI PUSH1 0x0 DUP1 REVERT JUMPDEST SWAP1 PUSH1 0x0 MSTORE PUSH1 0x20 PUSH1 0x0 KECCAK256 SWAP1 PUSH1 0x5 MUL ADD PUSH1 0x0 SWAP2 POP SWAP1 POP DUP1 PUSH1 0x0 ADD PUSH1 0x0 SWAP1 SLOAD SWAP1 PUSH2 0x100 EXP SWAP1 DIV PUSH20 0xFFFFFFFFFFFFFFFFFFFFFFFFFFFFFFFFFFFFFFFF AND SWAP1 DUP1 PUSH1 0x0 ADD PUSH1 0x14 SWAP1 SLOAD SWAP1 PUSH2 0x100 EXP SWAP1 DIV PUSH1 0xFF AND SWAP1 DUP1 PUSH1 0x0 ADD PUSH1 0x15 SWAP1 SLOAD SWAP1 PUSH2 0x100 EXP SWAP1 DIV PUSH1 0xFF AND SWAP1 DUP1 PUSH1 0x1 ADD SLOAD SWAP1 DUP1 PUSH1 0x2 ADD SLOAD SWAP1 DUP1 PUSH1 0x3 ADD SLOAD SWAP1 DUP1 PUSH1 0x4 ADD DUP1 SLOAD PUSH2 0x32F SWAP1 PUSH2 0x1847 JUMP JUMPDEST DUP1 PUSH1 0x1F ADD PUSH1 0x20 DUP1 SWAP2 DIV MUL PUSH1 0x20 ADD PUSH1 0x40 MLOAD SWAP1 DUP2 ADD PUSH1 0x40 MSTORE DUP1 SWAP3 SWAP2 SWAP1 DUP2 DUP2 MSTORE PUSH1 0x20 ADD DUP3 DUP1 SLOAD PUSH2 0x35B SWAP1 PUSH2 0x1847 JUMP JUMPDEST DUP1 ISZERO PUSH2 0x3A8 JUMPI DUP1 PUSH1 0x1F LT PUSH2 0x37D JUMPI PUSH2 0x100 DUP1 DUP4 SLOAD DIV MUL DUP4 MSTORE SWAP2 PUSH1 0x20 ADD SWAP2 PUSH2 0x3A8 JUMP JUMPDEST DUP3 ADD SWAP2 SWAP1 PUSH1 0x0 MSTORE PUSH1 0x20 PUSH1 0x0 KECCAK256 SWAP1 JUMPDEST DUP2 SLOAD DUP2 MSTORE SWAP1 PUSH1 0x1 ADD SWAP1 PUSH1 0x20 ADD DUP1 DUP4 GT PUSH2 0x38B JUMPI DUP3 SWAP1 SUB PUSH1 0x1F AND DUP3 ADD SWAP2 JUMPDEST POP POP POP POP POP SWAP1 POP DUP8 JUMP JUMPDEST PUSH1 0x0 DUP1 PUSH1 0x0 SWAP1 POP JUMPDEST PUSH1 0x1 DUP1 SLOAD SWAP1 POP DUP2 PUSH1 0xFF AND LT ISZERO PUSH2 0x45F JUMPI CALLER PUSH20 0xFFFFFFFFFFFFFFFFFFFFFFFFFFFFFFFFFFFFFFFF AND PUSH1 0x1 DUP3 PUSH1 0xFF AND DUP2 SLOAD DUP2 LT PUSH2 0x3F8 JUMPI PUSH2 0x3F7 PUSH2 0x1961 JUMP JUMPDEST JUMPDEST SWAP1 PUSH1 0x0 MSTORE PUSH1 0x20 PUSH1 0x0 KECCAK256 ADD PUSH1 0x0 ADD PUSH1 0x0 SWAP1 SLOAD SWAP1 PUSH2 0x100 EXP SWAP1 DIV PUSH20 0xFFFFFFFFFFFFFFFFFFFFFFFFFFFFFFFFFFFFFFFF AND PUSH20 0xFFFFFFFFFFFFFFFFFFFFFFFFFFFFFFFFFFFFFFFF AND EQ ISZERO PUSH2 0x44C JUMPI PUSH1 0x0 SWAP2 POP POP PUSH2 0x465 JUMP JUMPDEST DUP1 DUP1 PUSH2 0x457 SWAP1 PUSH2 0x18AA JUMP JUMPDEST SWAP2 POP POP PUSH2 0x3BA JUMP JUMPDEST POP PUSH1 0x1 SWAP1 POP JUMPDEST SWAP1 JUMP JUMPDEST PUSH1 0x0 DUP1 PUSH1 0x5 PUSH1 0x0 CALLER PUSH20 0xFFFFFFFFFFFFFFFFFFFFFFFFFFFFFFFFFFFFFFFF AND PUSH20 0xFFFFFFFFFFFFFFFFFFFFFFFFFFFFFFFFFFFFFFFF AND DUP2 MSTORE PUSH1 0x20 ADD SWAP1 DUP2 MSTORE PUSH1 0x20 ADD PUSH1 0x0 KECCAK256 PUSH1 0x0 SWAP1 SLOAD SWAP1 PUSH2 0x100 EXP SWAP1 DIV PUSH1 0xFF AND PUSH1 0xFF AND EQ ISZERO PUSH2 0x4CA JUMPI PUSH1 0x1 SWAP1 POP PUSH2 0x54D JUMP JUMPDEST PUSH1 0x5 PUSH1 0x0 CALLER PUSH20 0xFFFFFFFFFFFFFFFFFFFFFFFFFFFFFFFFFFFFFFFF AND PUSH20 0xFFFFFFFFFFFFFFFFFFFFFFFFFFFFFFFFFFFFFFFF AND DUP2 MSTORE PUSH1 0x20 ADD SWAP1 DUP2 MSTORE PUSH1 0x20 ADD PUSH1 0x0 KECCAK256 PUSH1 0x0 SWAP1 SLOAD SWAP1 PUSH2 0x100 EXP SWAP1 DIV PUSH1 0xFF AND PUSH1 0xFF AND PUSH1 0x1 PUSH1 0x3 PUSH1 0x0 SWAP1 SLOAD SWAP1 PUSH2 0x100 EXP SWAP1 DIV PUSH1 0xFF AND PUSH2 0x536 SWAP2 SWAP1 PUSH2 0x177C JUMP JUMPDEST PUSH1 0xFF AND GT ISZERO PUSH2 0x548 JUMPI PUSH1 0x1 SWAP1 POP PUSH2 0x54D JUMP JUMPDEST PUSH1 0x0 SWAP1 POP JUMPDEST SWAP1 JUMP JUMPDEST PUSH1 0x0 DUP2 DUP2 SLOAD DUP2 LT PUSH2 0x560 JUMPI PUSH1 0x0 DUP1 REVERT JUMPDEST SWAP1 PUSH1 0x0 MSTORE PUSH1 0x20 PUSH1 0x0 KECCAK256 SWAP1 PUSH1 0x2 MUL ADD PUSH1 0x0 SWAP2 POP SWAP1 POP DUP1 PUSH1 0x0 ADD PUSH1 0x0 SWAP1 SLOAD SWAP1 PUSH2 0x100 EXP SWAP1 DIV PUSH20 0xFFFFFFFFFFFFFFFFFFFFFFFFFFFFFFFFFFFFFFFF AND SWAP1 DUP1 PUSH1 0x0 ADD PUSH1 0x14 SWAP1 SLOAD SWAP1 PUSH2 0x100 EXP SWAP1 DIV PUSH1 0xFF AND SWAP1 DUP1 PUSH1 0x0 ADD PUSH1 0x15 SWAP1 SLOAD SWAP1 PUSH2 0x100 EXP SWAP1 DIV PUSH1 0xFF AND SWAP1 DUP1 PUSH1 0x0 ADD PUSH1 0x16 SWAP1 SLOAD SWAP1 PUSH2 0x100 EXP SWAP1 DIV PUSH1 0xFF AND SWAP1 DUP1 PUSH1 0x1 ADD DUP1 SLOAD PUSH2 0x5E2 SWAP1 PUSH2 0x1847 JUMP JUMPDEST DUP1 PUSH1 0x1F ADD PUSH1 0x20 DUP1 SWAP2 DIV MUL PUSH1 0x20 ADD PUSH1 0x40 MLOAD SWAP1 DUP2 ADD PUSH1 0x40 MSTORE DUP1 SWAP3 SWAP2 SWAP1 DUP2 DUP2 MSTORE PUSH1 0x20 ADD DUP3 DUP1 SLOAD PUSH2 0x60E SWAP1 PUSH2 0x1847 JUMP JUMPDEST DUP1 ISZERO PUSH2 0x65B JUMPI DUP1 PUSH1 0x1F LT PUSH2 0x630 JUMPI PUSH2 0x100 DUP1 DUP4 SLOAD DIV MUL DUP4 MSTORE SWAP2 PUSH1 0x20 ADD SWAP2 PUSH2 0x65B JUMP JUMPDEST DUP3 ADD SWAP2 SWAP1 PUSH1 0x0 MSTORE PUSH1 0x20 PUSH1 0x0 KECCAK256 SWAP1 JUMPDEST DUP2 SLOAD DUP2 MSTORE SWAP1 PUSH1 0x1 ADD SWAP1 PUSH1 0x20 ADD DUP1 DUP4 GT PUSH2 0x63E JUMPI DUP3 SWAP1 SUB PUSH1 0x1F AND DUP3 ADD SWAP2 JUMPDEST POP POP POP POP POP SWAP1 POP DUP6 JUMP JUMPDEST PUSH1 0x5 PUSH1 0x0 DUP1 SLOAD SWAP1 POP EQ PUSH2 0x6AD JUMPI PUSH1 0x40 MLOAD PUSH32 0x8C379A000000000000000000000000000000000000000000000000000000000 DUP2 MSTORE PUSH1 0x4 ADD PUSH2 0x6A4 SWAP1 PUSH2 0x165B JUMP JUMPDEST PUSH1 0x40 MLOAD DUP1 SWAP2 SUB SWAP1 REVERT JUMPDEST PUSH2 0x6B5 PUSH2 0x3B2 JUMP JUMPDEST PUSH2 0x6F4 JUMPI PUSH1 0x40 MLOAD PUSH32 0x8C379A000000000000000000000000000000000000000000000000000000000 DUP2 MSTORE PUSH1 0x4 ADD PUSH2 0x6EB SWAP1 PUSH2 0x161B JUMP JUMPDEST PUSH1 0x40 MLOAD DUP1 SWAP2 SUB SWAP1 REVERT JUMPDEST PUSH1 0x0 PUSH1 0x1 DUP3 PUSH2 0x703 SWAP2 SWAP1 PUSH2 0x177C JUMP JUMPDEST PUSH1 0xFF AND DUP2 SLOAD DUP2 LT PUSH2 0x717 JUMPI PUSH2 0x716 PUSH2 0x1961 JUMP JUMPDEST JUMPDEST SWAP1 PUSH1 0x0 MSTORE PUSH1 0x20 PUSH1 0x0 KECCAK256 SWAP1 PUSH1 0x2 MUL ADD PUSH1 0x0 ADD PUSH1 0x16 DUP2 DUP2 SWAP1 SLOAD SWAP1 PUSH2 0x100 EXP SWAP1 DIV PUSH1 0xFF AND DUP1 SWAP3 SWAP2 SWAP1 PUSH2 0x745 SWAP1 PUSH2 0x18AA JUMP JUMPDEST SWAP2 SWAP1 PUSH2 0x100 EXP DUP2 SLOAD DUP2 PUSH1 0xFF MUL NOT AND SWAP1 DUP4 PUSH1 0xFF AND MUL OR SWAP1 SSTORE POP POP PUSH1 0x1 PUSH1 0x40 MLOAD DUP1 PUSH1 0x20 ADD PUSH1 0x40 MSTORE DUP1 CALLER PUSH20 0xFFFFFFFFFFFFFFFFFFFFFFFFFFFFFFFFFFFFFFFF AND DUP2 MSTORE POP SWAP1 DUP1 PUSH1 0x1 DUP2 SLOAD ADD DUP1 DUP3 SSTORE DUP1 SWAP2 POP POP PUSH1 0x1 SWAP1 SUB SWAP1 PUSH1 0x0 MSTORE PUSH1 0x20 PUSH1 0x0 KECCAK256 ADD PUSH1 0x0 SWAP1 SWAP2 SWAP1 SWAP2 SWAP1 SWAP2 POP PUSH1 0x0 DUP3 ADD MLOAD DUP2 PUSH1 0x0 ADD PUSH1 0x0 PUSH2 0x100 EXP DUP2 SLOAD DUP2 PUSH20 0xFFFFFFFFFFFFFFFFFFFFFFFFFFFFFFFFFFFFFFFF MUL NOT AND SWAP1 DUP4 PUSH20 0xFFFFFFFFFFFFFFFFFFFFFFFFFFFFFFFFFFFFFFFF AND MUL OR SWAP1 SSTORE POP POP POP PUSH1 0x5 PUSH1 0x0 PUSH1 0x1 DUP4 PUSH2 0x804 SWAP2 SWAP1 PUSH2 0x177C JUMP JUMPDEST PUSH1 0xFF AND DUP2 SLOAD DUP2 LT PUSH2 0x818 JUMPI PUSH2 0x817 PUSH2 0x1961 JUMP JUMPDEST JUMPDEST SWAP1 PUSH1 0x0 MSTORE PUSH1 0x20 PUSH1 0x0 KECCAK256 SWAP1 PUSH1 0x2 MUL ADD PUSH1 0x0 ADD PUSH1 0x16 SWAP1 SLOAD SWAP1 PUSH2 0x100 EXP SWAP1 DIV PUSH1 0xFF AND PUSH1 0xFF AND EQ ISZERO PUSH2 0xE3C JUMPI PUSH1 0x2 PUSH1 0x40 MLOAD DUP1 PUSH1 0xE0 ADD PUSH1 0x40 MSTORE DUP1 PUSH1 0x0 PUSH1 0x1 DUP6 PUSH2 0x85C SWAP2 SWAP1 PUSH2 0x177C JUMP JUMPDEST PUSH1 0xFF AND DUP2 SLOAD DUP2 LT PUSH2 0x870 JUMPI PUSH2 0x86F PUSH2 0x1961 JUMP JUMPDEST JUMPDEST SWAP1 PUSH1 0x0 MSTORE PUSH1 0x20 PUSH1 0x0 KECCAK256 SWAP1 PUSH1 0x2 MUL ADD PUSH1 0x0 ADD PUSH1 0x0 SWAP1 SLOAD SWAP1 PUSH2 0x100 EXP SWAP1 DIV PUSH20 0xFFFFFFFFFFFFFFFFFFFFFFFFFFFFFFFFFFFFFFFF AND PUSH20 0xFFFFFFFFFFFFFFFFFFFFFFFFFFFFFFFFFFFFFFFF AND DUP2 MSTORE PUSH1 0x20 ADD PUSH1 0x3 PUSH1 0x0 SWAP1 SLOAD SWAP1 PUSH2 0x100 EXP SWAP1 DIV PUSH1 0xFF AND PUSH1 0xFF AND DUP2 MSTORE PUSH1 0x20 ADD PUSH1 0x0 PUSH1 0x1 DUP6 PUSH2 0x8E4 SWAP2 SWAP1 PUSH2 0x177C JUMP JUMPDEST PUSH1 0xFF AND DUP2 SLOAD DUP2 LT PUSH2 0x8F8 JUMPI PUSH2 0x8F7 PUSH2 0x1961 JUMP JUMPDEST JUMPDEST SWAP1 PUSH1 0x0 MSTORE PUSH1 0x20 PUSH1 0x0 KECCAK256 SWAP1 PUSH1 0x2 MUL ADD PUSH1 0x0 ADD PUSH1 0x15 SWAP1 SLOAD SWAP1 PUSH2 0x100 EXP SWAP1 DIV PUSH1 0xFF AND PUSH1 0xFF AND DUP2 MSTORE PUSH1 0x20 ADD TIMESTAMP DUP2 MSTORE PUSH1 0x20 ADD PUSH1 0x0 DUP2 MSTORE PUSH1 0x20 ADD PUSH1 0x0 DUP2 MSTORE PUSH1 0x20 ADD PUSH1 0x0 PUSH1 0x1 DUP6 PUSH2 0x942 SWAP2 SWAP1 PUSH2 0x177C JUMP JUMPDEST PUSH1 0xFF AND DUP2 SLOAD DUP2 LT PUSH2 0x956 JUMPI PUSH2 0x955 PUSH2 0x1961 JUMP JUMPDEST JUMPDEST SWAP1 PUSH1 0x0 MSTORE PUSH1 0x20 PUSH1 0x0 KECCAK256 SWAP1 PUSH1 0x2 MUL ADD PUSH1 0x1 ADD DUP1 SLOAD PUSH2 0x972 SWAP1 PUSH2 0x1847 JUMP JUMPDEST DUP1 PUSH1 0x1F ADD PUSH1 0x20 DUP1 SWAP2 DIV MUL PUSH1 0x20 ADD PUSH1 0x40 MLOAD SWAP1 DUP2 ADD PUSH1 0x40 MSTORE DUP1 SWAP3 SWAP2 SWAP1 DUP2 DUP2 MSTORE PUSH1 0x20 ADD DUP3 DUP1 SLOAD PUSH2 0x99E SWAP1 PUSH2 0x1847 JUMP JUMPDEST DUP1 ISZERO PUSH2 0x9EB JUMPI DUP1 PUSH1 0x1F LT PUSH2 0x9C0 JUMPI PUSH2 0x100 DUP1 DUP4 SLOAD DIV MUL DUP4 MSTORE SWAP2 PUSH1 0x20 ADD SWAP2 PUSH2 0x9EB JUMP JUMPDEST DUP3 ADD SWAP2 SWAP1 PUSH1 0x0 MSTORE PUSH1 0x20 PUSH1 0x0 KECCAK256 SWAP1 JUMPDEST DUP2 SLOAD DUP2 MSTORE SWAP1 PUSH1 0x1 ADD SWAP1 PUSH1 0x20 ADD DUP1 DUP4 GT PUSH2 0x9CE JUMPI DUP3 SWAP1 SUB PUSH1 0x1F AND DUP3 ADD SWAP2 JUMPDEST POP POP POP POP POP DUP2 MSTORE POP SWAP1 DUP1 PUSH1 0x1 DUP2 SLOAD ADD DUP1 DUP3 SSTORE DUP1 SWAP2 POP POP PUSH1 0x1 SWAP1 SUB SWAP1 PUSH1 0x0 MSTORE PUSH1 0x20 PUSH1 0x0 KECCAK256 SWAP1 PUSH1 0x5 MUL ADD PUSH1 0x0 SWAP1 SWAP2 SWAP1 SWAP2 SWAP1 SWAP2 POP PUSH1 0x0 DUP3 ADD MLOAD DUP2 PUSH1 0x0 ADD PUSH1 0x0 PUSH2 0x100 EXP DUP2 SLOAD DUP2 PUSH20 0xFFFFFFFFFFFFFFFFFFFFFFFFFFFFFFFFFFFFFFFF MUL NOT AND SWAP1 DUP4 PUSH20 0xFFFFFFFFFFFFFFFFFFFFFFFFFFFFFFFFFFFFFFFF AND MUL OR SWAP1 SSTORE POP PUSH1 0x20 DUP3 ADD MLOAD DUP2 PUSH1 0x0 ADD PUSH1 0x14 PUSH2 0x100 EXP DUP2 SLOAD DUP2 PUSH1 0xFF MUL NOT AND SWAP1 DUP4 PUSH1 0xFF AND MUL OR SWAP1 SSTORE POP PUSH1 0x40 DUP3 ADD MLOAD DUP2 PUSH1 0x0 ADD PUSH1 0x15 PUSH2 0x100 EXP DUP2 SLOAD DUP2 PUSH1 0xFF MUL NOT AND SWAP1 DUP4 PUSH1 0xFF AND MUL OR SWAP1 SSTORE POP PUSH1 0x60 DUP3 ADD MLOAD DUP2 PUSH1 0x1 ADD SSTORE PUSH1 0x80 DUP3 ADD MLOAD DUP2 PUSH1 0x2 ADD SSTORE PUSH1 0xA0 DUP3 ADD MLOAD DUP2 PUSH1 0x3 ADD SSTORE PUSH1 0xC0 DUP3 ADD MLOAD DUP2 PUSH1 0x4 ADD SWAP1 DUP1 MLOAD SWAP1 PUSH1 0x20 ADD SWAP1 PUSH2 0xADF SWAP3 SWAP2 SWAP1 PUSH2 0x117C JUMP JUMPDEST POP POP POP PUSH1 0x1 PUSH1 0x2 DUP1 SLOAD SWAP1 POP GT ISZERO PUSH2 0xC1A JUMPI TIMESTAMP PUSH1 0x2 DUP1 PUSH1 0x3 PUSH1 0x0 SWAP1 SLOAD SWAP1 PUSH2 0x100 EXP SWAP1 DIV PUSH1 0xFF AND PUSH2 0xB0E SWAP2 SWAP1 PUSH2 0x177C JUMP JUMPDEST PUSH1 0xFF AND DUP2 SLOAD DUP2 LT PUSH2 0xB22 JUMPI PUSH2 0xB21 PUSH2 0x1961 JUMP JUMPDEST JUMPDEST SWAP1 PUSH1 0x0 MSTORE PUSH1 0x20 PUSH1 0x0 KECCAK256 SWAP1 PUSH1 0x5 MUL ADD PUSH1 0x2 ADD DUP2 SWAP1 SSTORE POP PUSH1 0x0 PUSH1 0x2 DUP1 PUSH1 0x3 PUSH1 0x0 SWAP1 SLOAD SWAP1 PUSH2 0x100 EXP SWAP1 DIV PUSH1 0xFF AND PUSH2 0xB56 SWAP2 SWAP1 PUSH2 0x177C JUMP JUMPDEST PUSH1 0xFF AND DUP2 SLOAD DUP2 LT PUSH2 0xB6A JUMPI PUSH2 0xB69 PUSH2 0x1961 JUMP JUMPDEST JUMPDEST SWAP1 PUSH1 0x0 MSTORE PUSH1 0x20 PUSH1 0x0 KECCAK256 SWAP1 PUSH1 0x5 MUL ADD PUSH1 0x2 ADD SLOAD SWAP1 POP PUSH1 0x0 PUSH1 0x2 DUP1 PUSH1 0x3 PUSH1 0x0 SWAP1 SLOAD SWAP1 PUSH2 0x100 EXP SWAP1 DIV PUSH1 0xFF AND PUSH2 0xB9D SWAP2 SWAP1 PUSH2 0x177C JUMP JUMPDEST PUSH1 0xFF AND DUP2 SLOAD DUP2 LT PUSH2 0xBB1 JUMPI PUSH2 0xBB0 PUSH2 0x1961 JUMP JUMPDEST JUMPDEST SWAP1 PUSH1 0x0 MSTORE PUSH1 0x20 PUSH1 0x0 KECCAK256 SWAP1 PUSH1 0x5 MUL ADD PUSH1 0x1 ADD SLOAD SWAP1 POP DUP1 DUP3 PUSH2 0xBD1 SWAP2 SWAP1 PUSH2 0x1748 JUMP JUMPDEST PUSH1 0x2 DUP1 PUSH1 0x3 PUSH1 0x0 SWAP1 SLOAD SWAP1 PUSH2 0x100 EXP SWAP1 DIV PUSH1 0xFF AND PUSH2 0xBEE SWAP2 SWAP1 PUSH2 0x177C JUMP JUMPDEST PUSH1 0xFF AND DUP2 SLOAD DUP2 LT PUSH2 0xC02 JUMPI PUSH2 0xC01 PUSH2 0x1961 JUMP JUMPDEST JUMPDEST SWAP1 PUSH1 0x0 MSTORE PUSH1 0x20 PUSH1 0x0 KECCAK256 SWAP1 PUSH1 0x5 MUL ADD PUSH1 0x3 ADD DUP2 SWAP1 SSTORE POP POP POP JUMPDEST PUSH1 0x3 PUSH1 0x0 SWAP1 SLOAD SWAP1 PUSH2 0x100 EXP SWAP1 DIV PUSH1 0xFF AND PUSH1 0x5 PUSH1 0x0 DUP1 PUSH1 0x1 DUP6 PUSH2 0xC3C SWAP2 SWAP1 PUSH2 0x177C JUMP JUMPDEST PUSH1 0xFF AND DUP2 SLOAD DUP2 LT PUSH2 0xC50 JUMPI PUSH2 0xC4F PUSH2 0x1961 JUMP JUMPDEST JUMPDEST SWAP1 PUSH1 0x0 MSTORE PUSH1 0x20 PUSH1 0x0 KECCAK256 SWAP1 PUSH1 0x2 MUL ADD PUSH1 0x0 ADD PUSH1 0x0 SWAP1 SLOAD SWAP1 PUSH2 0x100 EXP SWAP1 DIV PUSH20 0xFFFFFFFFFFFFFFFFFFFFFFFFFFFFFFFFFFFFFFFF AND PUSH20 0xFFFFFFFFFFFFFFFFFFFFFFFFFFFFFFFFFFFFFFFF AND PUSH20 0xFFFFFFFFFFFFFFFFFFFFFFFFFFFFFFFFFFFFFFFF AND DUP2 MSTORE PUSH1 0x20 ADD SWAP1 DUP2 MSTORE PUSH1 0x20 ADD PUSH1 0x0 KECCAK256 PUSH1 0x0 PUSH2 0x100 EXP DUP2 SLOAD DUP2 PUSH1 0xFF MUL NOT AND SWAP1 DUP4 PUSH1 0xFF AND MUL OR SWAP1 SSTORE POP JUMPDEST PUSH1 0x0 DUP1 DUP1 SLOAD SWAP1 POP GT ISZERO PUSH2 0xD85 JUMPI PUSH1 0x0 DUP1 SLOAD DUP1 PUSH2 0xCF4 JUMPI PUSH2 0xCF3 PUSH2 0x1932 JUMP JUMPDEST JUMPDEST PUSH1 0x1 SWAP1 SUB DUP2 DUP2 SWAP1 PUSH1 0x0 MSTORE PUSH1 0x20 PUSH1 0x0 KECCAK256 SWAP1 PUSH1 0x2 MUL ADD PUSH1 0x0 DUP1 DUP3 ADD PUSH1 0x0 PUSH2 0x100 EXP DUP2 SLOAD SWAP1 PUSH20 0xFFFFFFFFFFFFFFFFFFFFFFFFFFFFFFFFFFFFFFFF MUL NOT AND SWAP1 SSTORE PUSH1 0x0 DUP3 ADD PUSH1 0x14 PUSH2 0x100 EXP DUP2 SLOAD SWAP1 PUSH1 0xFF MUL NOT AND SWAP1 SSTORE PUSH1 0x0 DUP3 ADD PUSH1 0x15 PUSH2 0x100 EXP DUP2 SLOAD SWAP1 PUSH1 0xFF MUL NOT AND SWAP1 SSTORE PUSH1 0x0 DUP3 ADD PUSH1 0x16 PUSH2 0x100 EXP DUP2 SLOAD SWAP1 PUSH1 0xFF MUL NOT AND SWAP1 SSTORE PUSH1 0x1 DUP3 ADD PUSH1 0x0 PUSH2 0xD7C SWAP2 SWAP1 PUSH2 0x1202 JUMP JUMPDEST POP POP SWAP1 SSTORE PUSH2 0xCD5 JUMP JUMPDEST JUMPDEST PUSH1 0x0 PUSH1 0x1 DUP1 SLOAD SWAP1 POP GT ISZERO PUSH2 0xDE7 JUMPI PUSH1 0x1 DUP1 SLOAD DUP1 PUSH2 0xDA6 JUMPI PUSH2 0xDA5 PUSH2 0x1932 JUMP JUMPDEST JUMPDEST PUSH1 0x1 SWAP1 SUB DUP2 DUP2 SWAP1 PUSH1 0x0 MSTORE PUSH1 0x20 PUSH1 0x0 KECCAK256 ADD PUSH1 0x0 DUP1 DUP3 ADD PUSH1 0x0 PUSH2 0x100 EXP DUP2 SLOAD SWAP1 PUSH20 0xFFFFFFFFFFFFFFFFFFFFFFFFFFFFFFFFFFFFFFFF MUL NOT AND SWAP1 SSTORE POP POP SWAP1 SSTORE PUSH2 0xD86 JUMP JUMPDEST PUSH1 0x3 PUSH1 0x0 DUP2 DUP2 SWAP1 SLOAD SWAP1 PUSH2 0x100 EXP SWAP1 DIV PUSH1 0xFF AND DUP1 SWAP3 SWAP2 SWAP1 PUSH2 0xE06 SWAP1 PUSH2 0x18AA JUMP JUMPDEST SWAP2 SWAP1 PUSH2 0x100 EXP DUP2 SLOAD DUP2 PUSH1 0xFF MUL NOT AND SWAP1 DUP4 PUSH1 0xFF AND MUL OR SWAP1 SSTORE POP POP PUSH1 0x1 PUSH1 0x3 PUSH1 0x1 PUSH2 0x100 EXP DUP2 SLOAD DUP2 PUSH1 0xFF MUL NOT AND SWAP1 DUP4 PUSH1 0xFF AND MUL OR SWAP1 SSTORE POP JUMPDEST POP JUMP JUMPDEST PUSH1 0x5 PUSH1 0x3 PUSH1 0x1 SWAP1 SLOAD SWAP1 PUSH2 0x100 EXP SWAP1 DIV PUSH1 0xFF AND PUSH1 0xFF AND GT ISZERO PUSH2 0xE95 JUMPI PUSH1 0x40 MLOAD PUSH32 0x8C379A000000000000000000000000000000000000000000000000000000000 DUP2 MSTORE PUSH1 0x4 ADD PUSH2 0xE8C SWAP1 PUSH2 0x167B JUMP JUMPDEST PUSH1 0x40 MLOAD DUP1 SWAP2 SUB SWAP1 REVERT JUMPDEST PUSH2 0xE9D PUSH2 0x10A9 JUMP JUMPDEST PUSH2 0xEDC JUMPI PUSH1 0x40 MLOAD PUSH32 0x8C379A000000000000000000000000000000000000000000000000000000000 DUP2 MSTORE PUSH1 0x4 ADD PUSH2 0xED3 SWAP1 PUSH2 0x163B JUMP JUMPDEST PUSH1 0x40 MLOAD DUP1 SWAP2 SUB SWAP1 REVERT JUMPDEST PUSH2 0xEE4 PUSH2 0x468 JUMP JUMPDEST PUSH2 0xF23 JUMPI PUSH1 0x40 MLOAD PUSH32 0x8C379A000000000000000000000000000000000000000000000000000000000 DUP2 MSTORE PUSH1 0x4 ADD PUSH2 0xF1A SWAP1 PUSH2 0x169B JUMP JUMPDEST PUSH1 0x40 MLOAD DUP1 SWAP2 SUB SWAP1 REVERT JUMPDEST PUSH1 0x0 PUSH1 0x40 MLOAD DUP1 PUSH1 0xA0 ADD PUSH1 0x40 MSTORE DUP1 CALLER PUSH20 0xFFFFFFFFFFFFFFFFFFFFFFFFFFFFFFFFFFFFFFFF AND DUP2 MSTORE PUSH1 0x20 ADD PUSH1 0x3 PUSH1 0x1 SWAP1 SLOAD SWAP1 PUSH2 0x100 EXP SWAP1 DIV PUSH1 0xFF AND PUSH1 0xFF AND DUP2 MSTORE PUSH1 0x20 ADD DUP5 PUSH1 0xFF AND DUP2 MSTORE PUSH1 0x20 ADD PUSH1 0x0 PUSH1 0xFF AND DUP2 MSTORE PUSH1 0x20 ADD DUP4 DUP2 MSTORE POP SWAP1 DUP1 PUSH1 0x1 DUP2 SLOAD ADD DUP1 DUP3 SSTORE DUP1 SWAP2 POP POP PUSH1 0x1 SWAP1 SUB SWAP1 PUSH1 0x0 MSTORE PUSH1 0x20 PUSH1 0x0 KECCAK256 SWAP1 PUSH1 0x2 MUL ADD PUSH1 0x0 SWAP1 SWAP2 SWAP1 SWAP2 SWAP1 SWAP2 POP PUSH1 0x0 DUP3 ADD MLOAD DUP2 PUSH1 0x0 ADD PUSH1 0x0 PUSH2 0x100 EXP DUP2 SLOAD DUP2 PUSH20 0xFFFFFFFFFFFFFFFFFFFFFFFFFFFFFFFFFFFFFFFF MUL NOT AND SWAP1 DUP4 PUSH20 0xFFFFFFFFFFFFFFFFFFFFFFFFFFFFFFFFFFFFFFFF AND MUL OR SWAP1 SSTORE POP PUSH1 0x20 DUP3 ADD MLOAD DUP2 PUSH1 0x0 ADD PUSH1 0x14 PUSH2 0x100 EXP DUP2 SLOAD DUP2 PUSH1 0xFF MUL NOT AND SWAP1 DUP4 PUSH1 0xFF AND MUL OR SWAP1 SSTORE POP PUSH1 0x40 DUP3 ADD MLOAD DUP2 PUSH1 0x0 ADD PUSH1 0x15 PUSH2 0x100 EXP DUP2 SLOAD DUP2 PUSH1 0xFF MUL NOT AND SWAP1 DUP4 PUSH1 0xFF AND MUL OR SWAP1 SSTORE POP PUSH1 0x60 DUP3 ADD MLOAD DUP2 PUSH1 0x0 ADD PUSH1 0x16 PUSH2 0x100 EXP DUP2 SLOAD DUP2 PUSH1 0xFF MUL NOT AND SWAP1 DUP4 PUSH1 0xFF AND MUL OR SWAP1 SSTORE POP PUSH1 0x80 DUP3 ADD MLOAD DUP2 PUSH1 0x1 ADD SWAP1 DUP1 MLOAD SWAP1 PUSH1 0x20 ADD SWAP1 PUSH2 0x106A SWAP3 SWAP2 SWAP1 PUSH2 0x117C JUMP JUMPDEST POP POP POP PUSH1 0x3 PUSH1 0x1 DUP2 DUP2 SWAP1 SLOAD SWAP1 PUSH2 0x100 EXP SWAP1 DIV PUSH1 0xFF AND DUP1 SWAP3 SWAP2 SWAP1 PUSH2 0x108C SWAP1 PUSH2 0x18AA JUMP JUMPDEST SWAP2 SWAP1 PUSH2 0x100 EXP DUP2 SLOAD DUP2 PUSH1 0xFF MUL NOT AND SWAP1 DUP4 PUSH1 0xFF AND MUL OR SWAP1 SSTORE POP POP POP POP JUMP JUMPDEST PUSH1 0x0 DUP1 PUSH1 0x0 SWAP1 POP JUMPDEST PUSH1 0x1 PUSH1 0x3 PUSH1 0x1 SWAP1 SLOAD SWAP1 PUSH2 0x100 EXP SWAP1 DIV PUSH1 0xFF AND PUSH2 0x10CD SWAP2 SWAP1 PUSH2 0x177C JUMP JUMPDEST PUSH1 0xFF AND DUP2 PUSH1 0xFF AND LT ISZERO PUSH2 0x1173 JUMPI CALLER PUSH20 0xFFFFFFFFFFFFFFFFFFFFFFFFFFFFFFFFFFFFFFFF AND PUSH1 0x0 DUP3 PUSH1 0xFF AND DUP2 SLOAD DUP2 LT PUSH2 0x1108 JUMPI PUSH2 0x1107 PUSH2 0x1961 JUMP JUMPDEST JUMPDEST SWAP1 PUSH1 0x0 MSTORE PUSH1 0x20 PUSH1 0x0 KECCAK256 SWAP1 PUSH1 0x2 MUL ADD PUSH1 0x0 ADD PUSH1 0x0 SWAP1 SLOAD SWAP1 PUSH2 0x100 EXP SWAP1 DIV PUSH20 0xFFFFFFFFFFFFFFFFFFFFFFFFFFFFFFFFFFFFFFFF AND PUSH20 0xFFFFFFFFFFFFFFFFFFFFFFFFFFFFFFFFFFFFFFFF AND EQ ISZERO PUSH2 0x1160 JUMPI PUSH1 0x0 SWAP2 POP POP PUSH2 0x1179 JUMP JUMPDEST DUP1 DUP1 PUSH2 0x116B SWAP1 PUSH2 0x18AA JUMP JUMPDEST SWAP2 POP POP PUSH2 0x10B1 JUMP JUMPDEST POP PUSH1 0x1 SWAP1 POP JUMPDEST SWAP1 JUMP JUMPDEST DUP3 DUP1 SLOAD PUSH2 0x1188 SWAP1 PUSH2 0x1847 JUMP JUMPDEST SWAP1 PUSH1 0x0 MSTORE PUSH1 0x20 PUSH1 0x0 KECCAK256 SWAP1 PUSH1 0x1F ADD PUSH1 0x20 SWAP1 DIV DUP2 ADD SWAP3 DUP3 PUSH2 0x11AA JUMPI PUSH1 0x0 DUP6 SSTORE PUSH2 0x11F1 JUMP JUMPDEST DUP3 PUSH1 0x1F LT PUSH2 0x11C3 JUMPI DUP1 MLOAD PUSH1 0xFF NOT AND DUP4 DUP1 ADD OR DUP6 SSTORE PUSH2 0x11F1 JUMP JUMPDEST DUP3 DUP1 ADD PUSH1 0x1 ADD DUP6 SSTORE DUP3 ISZERO PUSH2 0x11F1 JUMPI SWAP2 DUP3 ADD JUMPDEST DUP3 DUP2 GT ISZERO PUSH2 0x11F0 JUMPI DUP3 MLOAD DUP3 SSTORE SWAP2 PUSH1 0x20 ADD SWAP2 SWAP1 PUSH1 0x1 ADD SWAP1 PUSH2 0x11D5 JUMP JUMPDEST JUMPDEST POP SWAP1 POP PUSH2 0x11FE SWAP2 SWAP1 PUSH2 0x1242 JUMP JUMPDEST POP SWAP1 JUMP JUMPDEST POP DUP1 SLOAD PUSH2 0x120E SWAP1 PUSH2 0x1847 JUMP JUMPDEST PUSH1 0x0 DUP3 SSTORE DUP1 PUSH1 0x1F LT PUSH2 0x1220 JUMPI POP PUSH2 0x123F JUMP JUMPDEST PUSH1 0x1F ADD PUSH1 0x20 SWAP1 DIV SWAP1 PUSH1 0x0 MSTORE PUSH1 0x20 PUSH1 0x0 KECCAK256 SWAP1 DUP2 ADD SWAP1 PUSH2 0x123E SWAP2 SWAP1 PUSH2 0x1242 JUMP JUMPDEST JUMPDEST POP JUMP JUMPDEST JUMPDEST DUP1 DUP3 GT ISZERO PUSH2 0x125B JUMPI PUSH1 0x0 DUP2 PUSH1 0x0 SWAP1 SSTORE POP PUSH1 0x1 ADD PUSH2 0x1243 JUMP JUMPDEST POP SWAP1 JUMP JUMPDEST PUSH1 0x0 PUSH2 0x1272 PUSH2 0x126D DUP5 PUSH2 0x16FB JUMP JUMPDEST PUSH2 0x16D6 JUMP JUMPDEST SWAP1 POP DUP3 DUP2 MSTORE PUSH1 0x20 DUP2 ADD DUP5 DUP5 DUP5 ADD GT ISZERO PUSH2 0x128E JUMPI PUSH2 0x128D PUSH2 0x19C4 JUMP JUMPDEST JUMPDEST PUSH2 0x1299 DUP5 DUP3 DUP6 PUSH2 0x1805 JUMP JUMPDEST POP SWAP4 SWAP3 POP POP POP JUMP JUMPDEST PUSH1 0x0 DUP2 CALLDATALOAD SWAP1 POP PUSH2 0x12B0 DUP2 PUSH2 0x1AB1 JUMP JUMPDEST SWAP3 SWAP2 POP POP JUMP JUMPDEST PUSH1 0x0 DUP3 PUSH1 0x1F DUP4 ADD SLT PUSH2 0x12CB JUMPI PUSH2 0x12CA PUSH2 0x19BF JUMP JUMPDEST JUMPDEST DUP2 CALLDATALOAD PUSH2 0x12DB DUP5 DUP3 PUSH1 0x20 DUP7 ADD PUSH2 0x125F JUMP JUMPDEST SWAP2 POP POP SWAP3 SWAP2 POP POP JUMP JUMPDEST PUSH1 0x0 DUP2 CALLDATALOAD SWAP1 POP PUSH2 0x12F3 DUP2 PUSH2 0x1AC8 JUMP JUMPDEST SWAP3 SWAP2 POP POP JUMP JUMPDEST PUSH1 0x0 DUP2 CALLDATALOAD SWAP1 POP PUSH2 0x1308 DUP2 PUSH2 0x1ADF JUMP JUMPDEST SWAP3 SWAP2 POP POP JUMP JUMPDEST PUSH1 0x0 PUSH1 0x20 DUP3 DUP5 SUB SLT ISZERO PUSH2 0x1324 JUMPI PUSH2 0x1323 PUSH2 0x19CE JUMP JUMPDEST JUMPDEST PUSH1 0x0 PUSH2 0x1332 DUP5 DUP3 DUP6 ADD PUSH2 0x12A1 JUMP JUMPDEST SWAP2 POP POP SWAP3 SWAP2 POP POP JUMP JUMPDEST PUSH1 0x0 PUSH1 0x20 DUP3 DUP5 SUB SLT ISZERO PUSH2 0x1351 JUMPI PUSH2 0x1350 PUSH2 0x19CE JUMP JUMPDEST JUMPDEST PUSH1 0x0 PUSH2 0x135F DUP5 DUP3 DUP6 ADD PUSH2 0x12E4 JUMP JUMPDEST SWAP2 POP POP SWAP3 SWAP2 POP POP JUMP JUMPDEST PUSH1 0x0 PUSH1 0x20 DUP3 DUP5 SUB SLT ISZERO PUSH2 0x137E JUMPI PUSH2 0x137D PUSH2 0x19CE JUMP JUMPDEST JUMPDEST PUSH1 0x0 PUSH2 0x138C DUP5 DUP3 DUP6 ADD PUSH2 0x12F9 JUMP JUMPDEST SWAP2 POP POP SWAP3 SWAP2 POP POP JUMP JUMPDEST PUSH1 0x0 DUP1 PUSH1 0x40 DUP4 DUP6 SUB SLT ISZERO PUSH2 0x13AC JUMPI PUSH2 0x13AB PUSH2 0x19CE JUMP JUMPDEST JUMPDEST PUSH1 0x0 PUSH2 0x13BA DUP6 DUP3 DUP7 ADD PUSH2 0x12F9 JUMP JUMPDEST SWAP3 POP POP PUSH1 0x20 DUP4 ADD CALLDATALOAD PUSH8 0xFFFFFFFFFFFFFFFF DUP2 GT ISZERO PUSH2 0x13DB JUMPI PUSH2 0x13DA PUSH2 0x19C9 JUMP JUMPDEST JUMPDEST PUSH2 0x13E7 DUP6 DUP3 DUP7 ADD PUSH2 0x12B6 JUMP JUMPDEST SWAP2 POP POP SWAP3 POP SWAP3 SWAP1 POP JUMP JUMPDEST PUSH2 0x13FA DUP2 PUSH2 0x17B0 JUMP JUMPDEST DUP3 MSTORE POP POP JUMP JUMPDEST PUSH2 0x1409 DUP2 PUSH2 0x17C2 JUMP JUMPDEST DUP3 MSTORE POP POP JUMP JUMPDEST PUSH1 0x0 PUSH2 0x141A DUP3 PUSH2 0x172C JUMP JUMPDEST PUSH2 0x1424 DUP2 DUP6 PUSH2 0x1737 JUMP JUMPDEST SWAP4 POP PUSH2 0x1434 DUP2 DUP6 PUSH1 0x20 DUP7 ADD PUSH2 0x1814 JUMP JUMPDEST PUSH2 0x143D DUP2 PUSH2 0x19D3 JUMP JUMPDEST DUP5 ADD SWAP2 POP POP SWAP3 SWAP2 POP POP JUMP JUMPDEST PUSH1 0x0 PUSH2 0x1455 PUSH1 0x16 DUP4 PUSH2 0x1737 JUMP JUMPDEST SWAP2 POP PUSH2 0x1460 DUP3 PUSH2 0x19E4 JUMP JUMPDEST PUSH1 0x20 DUP3 ADD SWAP1 POP SWAP2 SWAP1 POP JUMP JUMPDEST PUSH1 0x0 PUSH2 0x1478 PUSH1 0x1B DUP4 PUSH2 0x1737 JUMP JUMPDEST SWAP2 POP PUSH2 0x1483 DUP3 PUSH2 0x1A0D JUMP JUMPDEST PUSH1 0x20 DUP3 ADD SWAP1 POP SWAP2 SWAP1 POP JUMP JUMPDEST PUSH1 0x0 PUSH2 0x149B PUSH1 0x1A DUP4 PUSH2 0x1737 JUMP JUMPDEST SWAP2 POP PUSH2 0x14A6 DUP3 PUSH2 0x1A36 JUMP JUMPDEST PUSH1 0x20 DUP3 ADD SWAP1 POP SWAP2 SWAP1 POP JUMP JUMPDEST PUSH1 0x0 PUSH2 0x14BE PUSH1 0x20 DUP4 PUSH2 0x1737 JUMP JUMPDEST SWAP2 POP PUSH2 0x14C9 DUP3 PUSH2 0x1A5F JUMP JUMPDEST PUSH1 0x20 DUP3 ADD SWAP1 POP SWAP2 SWAP1 POP JUMP JUMPDEST PUSH1 0x0 PUSH2 0x14E1 PUSH1 0x1E DUP4 PUSH2 0x1737 JUMP JUMPDEST SWAP2 POP PUSH2 0x14EC DUP3 PUSH2 0x1A88 JUMP JUMPDEST PUSH1 0x20 DUP3 ADD SWAP1 POP SWAP2 SWAP1 POP JUMP JUMPDEST PUSH2 0x1500 DUP2 PUSH2 0x17EE JUMP JUMPDEST DUP3 MSTORE POP POP JUMP JUMPDEST PUSH2 0x150F DUP2 PUSH2 0x17F8 JUMP JUMPDEST DUP3 MSTORE POP POP JUMP JUMPDEST PUSH1 0x0 PUSH1 0x20 DUP3 ADD SWAP1 POP PUSH2 0x152A PUSH1 0x0 DUP4 ADD DUP5 PUSH2 0x13F1 JUMP JUMPDEST SWAP3 SWAP2 POP POP JUMP JUMPDEST PUSH1 0x0 PUSH1 0xE0 DUP3 ADD SWAP1 POP PUSH2 0x1545 PUSH1 0x0 DUP4 ADD DUP11 PUSH2 0x13F1 JUMP JUMPDEST PUSH2 0x1552 PUSH1 0x20 DUP4 ADD DUP10 PUSH2 0x1506 JUMP JUMPDEST PUSH2 0x155F PUSH1 0x40 DUP4 ADD DUP9 PUSH2 0x1506 JUMP JUMPDEST PUSH2 0x156C PUSH1 0x60 DUP4 ADD DUP8 PUSH2 0x14F7 JUMP JUMPDEST PUSH2 0x1579 PUSH1 0x80 DUP4 ADD DUP7 PUSH2 0x14F7 JUMP JUMPDEST PUSH2 0x1586 PUSH1 0xA0 DUP4 ADD DUP6 PUSH2 0x14F7 JUMP JUMPDEST DUP2 DUP2 SUB PUSH1 0xC0 DUP4 ADD MSTORE PUSH2 0x1598 DUP2 DUP5 PUSH2 0x140F JUMP JUMPDEST SWAP1 POP SWAP9 SWAP8 POP POP POP POP POP POP POP POP JUMP JUMPDEST PUSH1 0x0 PUSH1 0xA0 DUP3 ADD SWAP1 POP PUSH2 0x15BB PUSH1 0x0 DUP4 ADD DUP9 PUSH2 0x13F1 JUMP JUMPDEST PUSH2 0x15C8 PUSH1 0x20 DUP4 ADD DUP8 PUSH2 0x1506 JUMP JUMPDEST PUSH2 0x15D5 PUSH1 0x40 DUP4 ADD DUP7 PUSH2 0x1506 JUMP JUMPDEST PUSH2 0x15E2 PUSH1 0x60 DUP4 ADD DUP6 PUSH2 0x1506 JUMP JUMPDEST DUP2 DUP2 SUB PUSH1 0x80 DUP4 ADD MSTORE PUSH2 0x15F4 DUP2 DUP5 PUSH2 0x140F JUMP JUMPDEST SWAP1 POP SWAP7 SWAP6 POP POP POP POP POP POP JUMP JUMPDEST PUSH1 0x0 PUSH1 0x20 DUP3 ADD SWAP1 POP PUSH2 0x1615 PUSH1 0x0 DUP4 ADD DUP5 PUSH2 0x1400 JUMP JUMPDEST SWAP3 SWAP2 POP POP JUMP JUMPDEST PUSH1 0x0 PUSH1 0x20 DUP3 ADD SWAP1 POP DUP2 DUP2 SUB PUSH1 0x0 DUP4 ADD MSTORE PUSH2 0x1634 DUP2 PUSH2 0x1448 JUMP JUMPDEST SWAP1 POP SWAP2 SWAP1 POP JUMP JUMPDEST PUSH1 0x0 PUSH1 0x20 DUP3 ADD SWAP1 POP DUP2 DUP2 SUB PUSH1 0x0 DUP4 ADD MSTORE PUSH2 0x1654 DUP2 PUSH2 0x146B JUMP JUMPDEST SWAP1 POP SWAP2 SWAP1 POP JUMP JUMPDEST PUSH1 0x0 PUSH1 0x20 DUP3 ADD SWAP1 POP DUP2 DUP2 SUB PUSH1 0x0 DUP4 ADD MSTORE PUSH2 0x1674 DUP2 PUSH2 0x148E JUMP JUMPDEST SWAP1 POP SWAP2 SWAP1 POP JUMP JUMPDEST PUSH1 0x0 PUSH1 0x20 DUP3 ADD SWAP1 POP DUP2 DUP2 SUB PUSH1 0x0 DUP4 ADD MSTORE PUSH2 0x1694 DUP2 PUSH2 0x14B1 JUMP JUMPDEST SWAP1 POP SWAP2 SWAP1 POP JUMP JUMPDEST PUSH1 0x0 PUSH1 0x20 DUP3 ADD SWAP1 POP DUP2 DUP2 SUB PUSH1 0x0 DUP4 ADD MSTORE PUSH2 0x16B4 DUP2 PUSH2 0x14D4 JUMP JUMPDEST SWAP1 POP SWAP2 SWAP1 POP JUMP JUMPDEST PUSH1 0x0 PUSH1 0x20 DUP3 ADD SWAP1 POP PUSH2 0x16D0 PUSH1 0x0 DUP4 ADD DUP5 PUSH2 0x1506 JUMP JUMPDEST SWAP3 SWAP2 POP POP JUMP JUMPDEST PUSH1 0x0 PUSH2 0x16E0 PUSH2 0x16F1 JUMP JUMPDEST SWAP1 POP PUSH2 0x16EC DUP3 DUP3 PUSH2 0x1879 JUMP JUMPDEST SWAP2 SWAP1 POP JUMP JUMPDEST PUSH1 0x0 PUSH1 0x40 MLOAD SWAP1 POP SWAP1 JUMP JUMPDEST PUSH1 0x0 PUSH8 0xFFFFFFFFFFFFFFFF DUP3 GT ISZERO PUSH2 0x1716 JUMPI PUSH2 0x1715 PUSH2 0x1990 JUMP JUMPDEST JUMPDEST PUSH2 0x171F DUP3 PUSH2 0x19D3 JUMP JUMPDEST SWAP1 POP PUSH1 0x20 DUP2 ADD SWAP1 POP SWAP2 SWAP1 POP JUMP JUMPDEST PUSH1 0x0 DUP2 MLOAD SWAP1 POP SWAP2 SWAP1 POP JUMP JUMPDEST PUSH1 0x0 DUP3 DUP3 MSTORE PUSH1 0x20 DUP3 ADD SWAP1 POP SWAP3 SWAP2 POP POP JUMP JUMPDEST PUSH1 0x0 PUSH2 0x1753 DUP3 PUSH2 0x17EE JUMP JUMPDEST SWAP2 POP PUSH2 0x175E DUP4 PUSH2 0x17EE JUMP JUMPDEST SWAP3 POP DUP3 DUP3 LT ISZERO PUSH2 0x1771 JUMPI PUSH2 0x1770 PUSH2 0x18D4 JUMP JUMPDEST JUMPDEST DUP3 DUP3 SUB SWAP1 POP SWAP3 SWAP2 POP POP JUMP JUMPDEST PUSH1 0x0 PUSH2 0x1787 DUP3 PUSH2 0x17F8 JUMP JUMPDEST SWAP2 POP PUSH2 0x1792 DUP4 PUSH2 0x17F8 JUMP JUMPDEST SWAP3 POP DUP3 DUP3 LT ISZERO PUSH2 0x17A5 JUMPI PUSH2 0x17A4 PUSH2 0x18D4 JUMP JUMPDEST JUMPDEST DUP3 DUP3 SUB SWAP1 POP SWAP3 SWAP2 POP POP JUMP JUMPDEST PUSH1 0x0 PUSH2 0x17BB DUP3 PUSH2 0x17CE JUMP JUMPDEST SWAP1 POP SWAP2 SWAP1 POP JUMP JUMPDEST PUSH1 0x0 DUP2 ISZERO ISZERO SWAP1 POP SWAP2 SWAP1 POP JUMP JUMPDEST PUSH1 0x0 PUSH20 0xFFFFFFFFFFFFFFFFFFFFFFFFFFFFFFFFFFFFFFFF DUP3 AND SWAP1 POP SWAP2 SWAP1 POP JUMP JUMPDEST PUSH1 0x0 DUP2 SWAP1 POP SWAP2 SWAP1 POP JUMP JUMPDEST PUSH1 0x0 PUSH1 0xFF DUP3 AND SWAP1 POP SWAP2 SWAP1 POP JUMP JUMPDEST DUP3 DUP2 DUP4 CALLDATACOPY PUSH1 0x0 DUP4 DUP4 ADD MSTORE POP POP POP JUMP JUMPDEST PUSH1 0x0 JUMPDEST DUP4 DUP2 LT ISZERO PUSH2 0x1832 JUMPI DUP1 DUP3 ADD MLOAD DUP2 DUP5 ADD MSTORE PUSH1 0x20 DUP2 ADD SWAP1 POP PUSH2 0x1817 JUMP JUMPDEST DUP4 DUP2 GT ISZERO PUSH2 0x1841 JUMPI PUSH1 0x0 DUP5 DUP5 ADD MSTORE JUMPDEST POP POP POP POP JUMP JUMPDEST PUSH1 0x0 PUSH1 0x2 DUP3 DIV SWAP1 POP PUSH1 0x1 DUP3 AND DUP1 PUSH2 0x185F JUMPI PUSH1 0x7F DUP3 AND SWAP2 POP JUMPDEST PUSH1 0x20 DUP3 LT DUP2 EQ ISZERO PUSH2 0x1873 JUMPI PUSH2 0x1872 PUSH2 0x1903 JUMP JUMPDEST JUMPDEST POP SWAP2 SWAP1 POP JUMP JUMPDEST PUSH2 0x1882 DUP3 PUSH2 0x19D3 JUMP JUMPDEST DUP2 ADD DUP2 DUP2 LT PUSH8 0xFFFFFFFFFFFFFFFF DUP3 GT OR ISZERO PUSH2 0x18A1 JUMPI PUSH2 0x18A0 PUSH2 0x1990 JUMP JUMPDEST JUMPDEST DUP1 PUSH1 0x40 MSTORE POP POP POP JUMP JUMPDEST PUSH1 0x0 PUSH2 0x18B5 DUP3 PUSH2 0x17F8 JUMP JUMPDEST SWAP2 POP PUSH1 0xFF DUP3 EQ ISZERO PUSH2 0x18C9 JUMPI PUSH2 0x18C8 PUSH2 0x18D4 JUMP JUMPDEST JUMPDEST PUSH1 0x1 DUP3 ADD SWAP1 POP SWAP2 SWAP1 POP JUMP JUMPDEST PUSH32 0x4E487B7100000000000000000000000000000000000000000000000000000000 PUSH1 0x0 MSTORE PUSH1 0x11 PUSH1 0x4 MSTORE PUSH1 0x24 PUSH1 0x0 REVERT JUMPDEST PUSH32 0x4E487B7100000000000000000000000000000000000000000000000000000000 PUSH1 0x0 MSTORE PUSH1 0x22 PUSH1 0x4 MSTORE PUSH1 0x24 PUSH1 0x0 REVERT JUMPDEST PUSH32 0x4E487B7100000000000000000000000000000000000000000000000000000000 PUSH1 0x0 MSTORE PUSH1 0x31 PUSH1 0x4 MSTORE PUSH1 0x24 PUSH1 0x0 REVERT JUMPDEST PUSH32 0x4E487B7100000000000000000000000000000000000000000000000000000000 PUSH1 0x0 MSTORE PUSH1 0x32 PUSH1 0x4 MSTORE PUSH1 0x24 PUSH1 0x0 REVERT JUMPDEST PUSH32 0x4E487B7100000000000000000000000000000000000000000000000000000000 PUSH1 0x0 MSTORE PUSH1 0x41 PUSH1 0x4 MSTORE PUSH1 0x24 PUSH1 0x0 REVERT JUMPDEST PUSH1 0x0 DUP1 REVERT JUMPDEST PUSH1 0x0 DUP1 REVERT JUMPDEST PUSH1 0x0 DUP1 REVERT JUMPDEST PUSH1 0x0 DUP1 REVERT JUMPDEST PUSH1 0x0 PUSH1 0x1F NOT PUSH1 0x1F DUP4 ADD AND SWAP1 POP SWAP2 SWAP1 POP JUMP JUMPDEST PUSH32 0x796F75206861766520616C726561647920766F74656400000000000000000000 PUSH1 0x0 DUP3 ADD MSTORE POP JUMP JUMPDEST PUSH32 0x796F75206861766520616C726561647920726567697374657265640000000000 PUSH1 0x0 DUP3 ADD MSTORE POP JUMP JUMPDEST PUSH32 0x5468657265206D75737420626520352063616E64696461746573000000000000 PUSH1 0x0 DUP3 ADD MSTORE POP JUMP JUMPDEST PUSH32 0x43616E64696461746520726567697374726174696F6E20697320636C6F736564 PUSH1 0x0 DUP3 ADD MSTORE POP JUMP JUMPDEST PUSH32 0x63616E6E6F7420736572766520636F6E7365637574697665207465726D730000 PUSH1 0x0 DUP3 ADD MSTORE POP JUMP JUMPDEST PUSH2 0x1ABA DUP2 PUSH2 0x17B0 JUMP JUMPDEST DUP2 EQ PUSH2 0x1AC5 JUMPI PUSH1 0x0 DUP1 REVERT JUMPDEST POP JUMP JUMPDEST PUSH2 0x1AD1 DUP2 PUSH2 0x17EE JUMP JUMPDEST DUP2 EQ PUSH2 0x1ADC JUMPI PUSH1 0x0 DUP1 REVERT JUMPDEST POP JUMP JUMPDEST PUSH2 0x1AE8 DUP2 PUSH2 0x17F8 JUMP JUMPDEST DUP2 EQ PUSH2 0x1AF3 JUMPI PUSH1 0x0 DUP1 REVERT JUMPDEST POP JUMP INVALID LOG2 PUSH5 0x6970667358 0x22 SLT KECCAK256 OR BALANCE 0xCE SWAP2 0x5F 0xE5 LT ADDMOD PUSH1 0x86 0xAA PUSH16 0x963D9586EC408840AC9BE838F52F31F SAR PUSH10 0xD14D64736F6C63430008 MOD STOP CALLER "
		},
		"gasEstimates": {
			"creation": {
				"codeDepositCost": "1391200",
				"executionCost": "72141",
				"totalCost": "1463341"
			},
			"external": {
				"candidateDuplication()": "infinite",
				"candidateList(uint256)": "infinite",
				"candidateRegistration(uint8,string)": "infinite",
				"cannotServeConsecutiveTerms()": "infinite",
				"duplicationVote()": "infinite",
				"elected(address)": "2890",
				"getElectionNumber()": "2502",
				"presidentialList(uint256)": "infinite",
				"vote(uint8)": "infinite",
				"voterList(uint256)": "4982"
			}
		},
		"methodIdentifiers": {
			"candidateDuplication()": "ff2b1670",
			"candidateList(uint256)": "b13c744b",
			"candidateRegistration(uint8,string)": "ba25088b",
			"cannotServeConsecutiveTerms()": "afe35b8a",
			"duplicationVote()": "a9d21c7e",
			"elected(address)": "766af8c9",
			"getElectionNumber()": "569fd2e9",
			"presidentialList(uint256)": "9b910ea9",
			"vote(uint8)": "b3f98adc",
			"voterList(uint256)": "50e2e8af"
		}
	},
	"abi": [
		{
			"inputs": [],
			"name": "candidateDuplication",
			"outputs": [
				{
					"internalType": "bool",
					"name": "",
					"type": "bool"
				}
			],
			"stateMutability": "view",
			"type": "function"
		},
		{
			"inputs": [
				{
					"internalType": "uint256",
					"name": "",
					"type": "uint256"
				}
			],
			"name": "candidateList",
			"outputs": [
				{
					"internalType": "address",
					"name": "candidateAddress",
					"type": "address"
				},
				{
					"internalType": "uint8",
					"name": "number",
					"type": "uint8"
				},
				{
					"internalType": "uint8",
					"name": "age",
					"type": "uint8"
				},
				{
					"internalType": "uint8",
					"name": "poll",
					"type": "uint8"
				},
				{
					"internalType": "string",
					"name": "name",
					"type": "string"
				}
			],
			"stateMutability": "view",
			"type": "function"
		},
		{
			"inputs": [
				{
					"internalType": "uint8",
					"name": "_age",
					"type": "uint8"
				},
				{
					"internalType": "string",
					"name": "_name",
					"type": "string"
				}
			],
			"name": "candidateRegistration",
			"outputs": [],
			"stateMutability": "nonpayable",
			"type": "function"
		},
		{
			"inputs": [],
			"name": "cannotServeConsecutiveTerms",
			"outputs": [
				{
					"internalType": "bool",
					"name": "",
					"type": "bool"
				}
			],
			"stateMutability": "view",
			"type": "function"
		},
		{
			"inputs": [],
			"name": "duplicationVote",
			"outputs": [
				{
					"internalType": "bool",
					"name": "",
					"type": "bool"
				}
			],
			"stateMutability": "view",
			"type": "function"
		},
		{
			"inputs": [
				{
					"internalType": "address",
					"name": "",
					"type": "address"
				}
			],
			"name": "elected",
			"outputs": [
				{
					"internalType": "uint8",
					"name": "",
					"type": "uint8"
				}
			],
			"stateMutability": "view",
			"type": "function"
		},
		{
			"inputs": [],
			"name": "getElectionNumber",
			"outputs": [
				{
					"internalType": "uint8",
					"name": "",
					"type": "uint8"
				}
			],
			"stateMutability": "view",
			"type": "function"
		},
		{
			"inputs": [
				{
					"internalType": "uint256",
					"name": "",
					"type": "uint256"
				}
			],
			"name": "presidentialList",
			"outputs": [
				{
					"internalType": "address",
					"name": "candidateAddress",
					"type": "address"
				},
				{
					"internalType": "uint8",
					"name": "number",
					"type": "uint8"
				},
				{
					"internalType": "uint8",
					"name": "age",
					"type": "uint8"
				},
				{
					"internalType": "uint256",
					"name": "electedDay",
					"type": "uint256"
				},
				{
					"internalType": "uint256",
					"name": "expiration",
					"type": "uint256"
				},
				{
					"internalType": "uint256",
					"name": "presidentialTerm",
					"type": "uint256"
				},
				{
					"internalType": "string",
					"name": "name",
					"type": "string"
				}
			],
			"stateMutability": "view",
			"type": "function"
		},
		{
			"inputs": [
				{
					"internalType": "uint8",
					"name": "_number",
					"type": "uint8"
				}
			],
			"name": "vote",
			"outputs": [],
			"stateMutability": "nonpayable",
			"type": "function"
		},
		{
			"inputs": [
				{
					"internalType": "uint256",
					"name": "",
					"type": "uint256"
				}
			],
			"name": "voterList",
			"outputs": [
				{
					"internalType": "address",
					"name": "VoterAddress",
					"type": "address"
				}
			],
			"stateMutability": "view",
			"type": "function"
		}
	]
}